:020000040800F2
:10000000FCFF0020791300001115000011150000FD
:100010001115000011150000111500001115000048
:100020001115000011150000111500001115000038
:100030001115000011150000111500001115000028
:100040001115000011150000111500001115000018
:100050001115000011150000111500001115000008
:1000600011150000111500001115000011150000F8
:1000700011150000111500001115000011150000E8
:1000800011150000111500001115000011150000D8
:1000900011150000111500001115000011150000C8
:1000A00011150000111500001115000011150000B8
:1000B0009513000011150000111500001115000026
:1000C0001115000011150000111500001115000098
:1000D0001115000011150000111500001115000088
:1000E0001115000011150000111500001115000078
:1000F0001115000011150000111500001115000068
:100100001115000011150000111500001115000057
:100110001115000011150000111500001115000047
:100120001115000011150000111500001115000037
:100130001115000011150000111500001115000027
:100140001115000011150000111500001115000017
:1001500081B0194900EA0101084600220EE004209E
:1001600022E0082020E010201EE020201CE040209B
:100170001AE0802018E040F2001015E00F49884294
:10018000EDD00F498842ECD00E498842EBD00E49A1
:100190008842EAD00D498842E9D00D498842E8D02A
:1001A0000C498842E7D010460B49096841EA000231
:1001B00009490A6001B0704700FCFFFF00080140D8
:1001C000000C0140001001400014014000180140E3
:1001D000001C0140002001401810024081B0CDF801
:1001E00000E08CB21546774B00EA03031E46184622
:1001F000FFF7AEFFB4F1FF0F0CD1734B9D4203D15B
:100200004FF033333360D9E0422D03D14FF0443304
:100210003360D3E04FF6FF739C4214D16A4B9D428A
:1002200007D14FF033333360341D4FF03333236045
:10023000C4E0422D07D14FF044333360341D4FF0FA
:1002400044332360BAE00021002005F001030BB124
:1002500000211DE005F0020333B105F4C0730BB1BA
:10026000082100E0042113E005F0040333B105F098
:1002700020030BB1042100E0002109E005F0080390
:1002800033B105F020030BB10C2100E00821FFE79A
:100290004E4B05EA03030BB1032009E005F400739C
:1002A0000BB1022004E005F480630BB10120FFE7ED
:1002B00005F00C030BB10143FFE704F0FF039BB211
:1002C000002B3BD0376800201FFA84F832462E46B8
:1002D00008282CD24FF0010303FA00F408EA0403C3
:1002E000A34222D185004FF00F03AB40DB4307EA66
:1002F000030401FA05F344EA03031D4606F481737F
:10030000B3F5817F05D102F214044FF0010383405D
:10031000236006F08203822B05D102F210044FF015
:100320000103834023602F46FFE7401CD0E717609E
:100330001FFA88F00F463146164602E00F4629465E
:10034000A0B2B0F1FF0F39D9331DD3F800800022DD
:10035000082A30D202F208044FF0010303FA04F431
:1003600000EA0403A34224D195004FF00F03AB40F1
:10037000DB4308EA030807FA05F348EA030801F437
:100380008173B3F5817F07D106F2140502F20804E8
:100390004FF00103A3402B6001F08203822B07D1B1
:1003A00006F2100502F208044FF00103A3402B608F
:1003B000FFE7521CCCE7331DC3F80080DDF800E0F6
:1003C00001B0704700FCFFFF14000800000808009F
:1003D00081B0CDF800E04FF0420289B2FFF7FEFE97
:1003E000DDF800E001B0704781B0CDF800E0044ACC
:1003F00089B2FFF7F3FEDDF800E001B0704700BFFF
:100400001400080001490860704700BFA80122429B
:1004100001490860704700BFB0812242014908606D
:10042000704700BFAC01224201490860704700BF1D
:10043000B001224201490860704700BFB0812242EA
:1004400001490860704700BF8C01224201490860E1
:10045000704700BF9401214201490860704700BF06
:10046000B881224201490860704700BF988121424B
:1004700001490860704700BF9C812142B1F1FF0F24
:1004800003D18518FF242C7016E084182578FE29E6
:1004900003D18518FE242C700EE06C00E5B2012B10
:1004A00003D145F00103DBB200E0EBB2802903D1B8
:1004B00043F08005841825707047FFFF81B0EFF38B
:1004C000108C604662B601B07047FFFF81B0002318
:1004D00000248DF800200546D8B20A469DF8001089
:1004E000092C04D200231370641CE4B2F8E700273F
:1004F0008F4238D2EB191E7840F28009431CDBB2E0
:10050000D8B2012B01D10123137040F20108B8F1D8
:10051000090F25D206EA0903DBB243B1FB001BB287
:1005200008EB03031BB2D4180123237007E0FB0080
:100530001BB208EB03031BB2D41800232370B9F1DC
:10054000010F04D14FEAC9135FFA83F903E04FEAC0
:1005500059095FFA89F908F101085FFA88F8D6E7C6
:100560007F1CFFB2C4E701B07047FFFFC1B2C8B241
:10057000902902D0A02800D007E000F00101C9B204
:1005800009B1012002E0002000E000207047FFFFD9
:10059000420012B2521C12B2D3B2024AD2181170E7
:1005A000704700BF1000002001490860704700BF7D
:1005B0009481224201490860704700BF988122421D
:1005C00001490860704700BF9881214281B004282A
:1005D00006D11949096841F4803217490A6028E0B8
:1005E000052806D11449096841F4003212490A600D
:1005F0001FE0062806D11049096841F480220E49FF
:100600000A6016E00F2806D10C49096841F0020281
:100610000A490A600DE010280BD3A0F2100461090A
:100620008A0007498B1804F01F024FF00101914026
:10063000196001B0704700BF24ED00E010E000E059
:1006400000E100E001490860704700BF9C81214241
:1006500001490860704700BF9001214201490860CC
:10066000704700BF8801224201490860704700BFFF
:10067000B481224281B0CDF800E0A9E0012905D182
:1006800040F210016548FFF7A3FE04E040F21001BC
:100690006248FFF7A9FEBBE0012905D140F2040141
:1006A0005F48FFF795FE04E040F204015C48FFF765
:1006B0009BFEADE0012905D142F200015948FFF748
:1006C00087FE04E042F200015648FFF78DFE9FE0EE
:1006D000012905D140F200415148FFF779FE04E0BD
:1006E00040F200414E48FFF77FFE91E0012905D11D
:1006F00040F600014A48FFF76BFE04E040F60001B7
:100700004748FFF771FE83E0012905D141F200015E
:100710004348FFF75DFE04E041F200014048FFF767
:1007200063FE75E0012905D140F201013B48FFF766
:100730004FFE04E040F201013848FFF755FE67E044
:10074000012905D140F200413648FFF741FE04E09F
:1007500040F200413348FFF747FE59E0012905D137
:1007600040F200212F48FFF733FE04E040F2002161
:100770002C48FFF739FE4BE0012905D140F200116A
:100780002848FFF725FE04E040F200112548FFF756
:100790002BFE3DE0012905D140F240012248FFF740
:1007A00017FE04E040F240011F48FFF71DFE2FE056
:1007B000012905D140F280011B48FFF709FE04E042
:1007C00040F280011848FFF70FFE21E0012020E0F1
:1007D00000283FF453AF01283FF45EAF02283FF4F6
:1007E00069AF03283FF474AF04283FF47FAF0528B6
:1007F0003FF48AAF06283FF495AF0728A0D0082819
:10080000ACD00928B8D00A28C4D00B28D0D0DDE756
:100810000020DDF800E001B0704700BF0008014093
:100820000010014000140140000C014081B0CDF8DF
:1008300000E0A9E0012905D140F220016548FFF759
:10084000C7FD04E040F220016248FFF7CDFDBBE0A8
:10085000012905D140F208015F48FFF7B9FD04E026
:1008600040F208015C48FFF7BFFDADE0012905D16A
:1008700044F200015948FFF7ABFD04E044F20001E7
:100880005648FFF7B1FD9FE0012905D140F2004134
:100890005148FFF79DFD04E040F200414E48FFF74C
:1008A000A3FD91E0012905D140F600014A48FFF778
:1008B0008FFD04E040F600014748FFF795FD83E017
:1008C000012905D141F200014348FFF781FD04E011
:1008D00041F200014048FFF787FD75E0012905D18D
:1008E00041F200013D48FFF773FD04E041F20001D1
:1008F0003A48FFF779FD67E0012905D140F600018C
:100900003648FFF765FD04E040F600013348FFF785
:100910006BFD59E0012905D140F240012F48FFF756
:1009200057FD04E040F240012C48FFF75DFD4BE02D
:10093000012905D140F220012848FFF749FD04E0D4
:1009400040F220012548FFF74FFD3DE0012905D188
:1009500040F240012248FFF73BFD04E040F2400135
:100960001F48FFF741FD2FE0012905D140F280012A
:100970001B48FFF72DFD04E040F280011848FFF707
:1009800033FD21E0012020E000283FF453AF01288F
:100990003FF45EAF02283FF469AF03283FF474AF21
:1009A00004283FF47FAF05283FF48AAF06283FF4C0
:1009B00095AF0728A0D00828ACD00928B8D00A28BD
:1009C000C4D00B28D0D0DDE70020DDF800E001B076
:1009D000704700BF000801400010014000140140B2
:1009E000000C014000F230011C310A6805490A6020
:1009F000011D0A6804490A6000F21C010A680349E3
:100A00000A60704700000020040000200800002059
:100A100001490860704700BFA801224201490860EF
:100A2000704700BFA881224201490860704700BF9B
:100A3000A481224201490860704700BFA081224280
:100A400001490860704700BFB001224201490860B7
:100A5000704700BF8001214201490860704700BF14
:100A6000AC01224201480068704700BF0C012242DD
:100A700001480068704700BF2C012242014800680D
:100A8000704700BF2801224201480068704700BF3C
:100A90003881224201480068704700BF140121429A
:100AA00001480068704700BF208122420148006869
:100AB000704700BF2481224201480068704700BF90
:100AC0001C81214201480068704700BF1881214203
:100AD00001480068704700BF1C812142014800683E
:100AE000704700BF1881214281B0CDF800E01C4C56
:100AF0002478E40024B2A51C2DB21A4C2488AC4200
:100B000010D1194C2468A04730B115480178174816
:100B100041180020087005E0114801781348411879
:100B2000012008700F480088411C0E4801800D48C4
:100B30000088401C80B200F0070080B220B908484D
:100B40000078411C0648017005480078082802D941
:100B5000062107480170DDF800E001B0704700BFD2
:100B60000D0000200E00002000000020C800002022
:100B70000C00002081B0CDF800E031480088082842
:100B80000DD22F480088042804D201202D4C24685F
:100B9000A04703E000202B4C2468A04731E02A48FE
:100BA000007811282DD22648008800F0030080B27A
:100BB000002826D1224800888008C0B200F0010039
:100BC000C0B278B92048017820484018007820B990
:100BD00000201C4C2468A04703E00120194C246825
:100BE000A0470EE01848017818484018007820B94E
:100BF0000120144C2468A04703E00020114C246815
:100C0000A0470F480088411C0D4801800C4800880F
:100C100000F0070080B220B90B480078411C0A4858
:100C2000017009480078102806D90721084801708A
:100C30000020044C2468A047DDF800E001B07047B4
:100C40000E000020040000200D000020B300002052
:100C50000C00002001480068704700BF1481224248
:100C600001480068704700BF308122420148006897
:100C7000704700BF3001224201480068704700BF42
:100C80001881224201480068704700BF308122422B
:100C900001480068704700BF2881224286B0CDF825
:100CA00000E08DF80420C2B29DF80400CEB2D9B2A3
:100CB0008DF804108DF808008DF80C608DF8102068
:100CC0000020434C2468A0479DF810209DF80C603C
:100CD0009DF808009DF8041000253E4C2580002555
:100CE0003D4C257001253D4C257005AC2270641CDF
:100CF000267000238DF804105FFA82FB5FFA86FAF3
:100D0000C1B29DF80400112B06D2354CE518002421
:100D10002C705B1CDBB2F6E705ACC3B200222046A8
:100D2000FFF7ACFB05AC02222D492046FFF7CEFBB6
:100D300005AC641C2478E1B25FFA8BF0FFF728FC65
:100D4000BAF1000F05D3BAF11F0F02D80025254CC8
:100D50002570BAF1140F05D3BAF1800F02D800251F
:100D6000204C2570BAF1900F02D301251D4C25703F
:100D700005AC2478E0B2FFF7F9FBF8B10125194C76
:100D8000257005AC2478A12C04D005AC2478A32CC4
:100D900000D003E00025134C25700FE005AC24784B
:100DA000B92C04D005AC2478BB2C00D003E001257D
:100DB0000C4C257002E000250A4C25700025054CDE
:100DC00025800025044C2570DDF800E006B0704752
:100DD000040000200E0000200D0000200C00002068
:100DE000B3000020B000002081B0CDF800E05FFA31
:100DF00081F95FFA82FA0FE05FFA8AF15FFA89F00F
:100E0000FFF738FC0DE05FFA8AF15FFA89F0FFF72F
:100E10000DFD06E0012004E00028EDD00128F2D00D
:100E2000F8E7DDF800E001B07047FFFF81B0CDF8D2
:100E300000E03A48007828B90021394801800021B3
:100E400038480170354800780128FFD133480078D0
:100E50000228FFD131480078072813D100213048FB
:100E6000018000212F48017000202F4C2468A047EA
:100E70002E48007818B104212848017002E00521AD
:100E80002648017025480078062805D1002123480E
:100E9000017000212548017020480078092804D0FD
:100EA0001E480078082800D00EE000211B48017081
:100EB0001E48007840B10A211848017001211C48E1
:100EC000017001211B480170144C24780A2C17D1A1
:100ED000184C247816480470174C2468A04715490C
:100EE00008701448017812480078884208D0002120
:100EF0000B48018000210B48017002210748017056
:100F000006480078032803D10020074C2468A04736
:100F100002480078DDF800E001B070470C000020C6
:100F20000E0000200D00002004000020B000002072
:100F3000B1000020B20000200000002081B0CDF8F8
:100F400000E0002122480170002122480180002198
:100F5000214801700120214C2468A0470123412B26
:100F600013D25A00580000B2811E09B21C48411821
:100F7000D0B20870580000B2411E09B2184841189A
:100F8000002008705B1CDBB2E9E70123112B1AD2A9
:100F90005800C0B200F28002580000B2803000B2A7
:100FA000811E09B20E484118D0B20870580000B234
:100FB000803000B2411E09B2094841180020087073
:100FC0005B1CDBB2E2E7DDF800E001B0704700BF78
:100FD0000C0000200E0000200D0000200400002066
:100FE0001000002081B0CDF800E0FFF7FBFCDDF839
:100FF00000E001B07047FFFF81B0CDF800E00121B3
:1010000049B20E480160002149B20D48016000213B
:101010000C48016041F63F510B48016040F22C0042
:10102000FFF7D4FA012149B2084801600448016081
:10103000FFF744FADDF800E001B070478003424258
:1010400000000042280000402C00004080010042C7
:1010500001480068704700BF100121420148006844
:10106000704700BF3481224201480068704700BFCA
:101070002801224201480068704700BF2C0122422B
:1010800001480068704700BF000121420148006824
:10109000704700BF0801224201480068704700BF46
:1010A0003001224281B01CF8019B0BF8019BBBEB85
:1010B0000A0FF8D101B0704781B0CDF800E0354893
:1010C000007860B133480078012801D1FFF752FD64
:1010D00030480078022801D1FFF706FDFFE72D4CCC
:1010E00024780A2C2ED12C4C24782C4804702C4CBB
:1010F0002468A047284908702A480088C8280DD9C4
:101100000021244801700022082A06D226488118AE
:1011100000200870521CD2B2F6E70EE01E4801789B
:101120001E480078884208D002211A480170002128
:101130001C48018000211D4801701A480088411C8C
:101140001848018013480078042804D0114800781A
:10115000052800D01AE00F480078052806D111486C
:101160000088682802D909210A48017009480078D6
:10117000042806D10B4800881C2802D908210548FC
:10118000017008480088411C06480180DDF800E035
:1011900001B070470C000020B2000020B100002018
:1011A000000000200E000020C80000200D000020DC
:1011B00081B01548006840F00101134801601349EF
:1011C0001348016010480168124801400E48016050
:1011D0000D4801686FF4802001400B4801600C4805
:1011E00001686FF4FE00014009480160064801688B
:1011F0006FF0A0500140044801604FF00001064824
:10120000016001B0704700BF001002400000FFF015
:1012100004100240FFFFF6FE2C10024081B04FF098
:1012200000094FF0000CBDEB0A0F04DCBDEB0B0F07
:1012300001DBD446EA464BF8049BBBEB0A0FFAD11C
:10124000BCEB0A0F05DDE246D9F800B00BF1040B48
:10125000F1E701B07047FFFF81B0CDF800E0002258
:1012600007210020FFF7C0FD002201210020FFF729
:10127000BBFDDDF800E001B07047FFFFFFFFFFFF9F
:1012800082B0CDF800E00021022928D28DF80410A8
:101290000123FF2200210020FFF700FD41F6FF2778
:1012A000C0F2B70700BF00BF7F1EFDD100BF00BF67
:1012B00000BF0123FF2205210020FFF7EFFC9DF86E
:1012C000041041F6FF27C0F2B7077F1EFDD100BF13
:1012D00000BF00BF00BF00BF491CC9B2D4E7002156
:1012E000082917D28DF804100123FF2202210020C3
:1012F000FFF7D4FC9DF8041048F67F57C0F25B0757
:101300007F1EFDD100BF00BF00BF00BF00BF491C52
:10131000C9B2E5E70021082917D28DF8041001238E
:10132000FF2201210020FFF7B9FC9DF8041048F6C8
:101330007F57C0F25B0700BF00BF7F1EFDD100BF1B
:1013400000BF00BF491CC9B2E5E7FFF76FFDDDF83C
:1013500000E002B07047FFFF81B0CDF800E0054823
:10136000FFF740FEFFF7EAFDFFF746FEDDF800E07D
:1013700001B070471815000000F01EF800F0FCF8EE
:1013800000F0BCF8FFF768FFFFF7E6FFFFF778FF14
:10139000FCE7FEE730B481B0CDF800E0FFF78CFE4B
:1013A000002149B203480160DDF800E001B030BC23
:1013B000704700BF0002004281B0CDF800E0464A0D
:1013C000464B474C47494BF68030814206D9464848
:1013D000006840F002014448016011E045F6C05049
:1013E000814206D94048006840F001013E48016052
:1013F00006E03D4801686FF0070001403A4801608F
:10140000FFF7D6FE3948036039480460394802EADC
:1014100000013948016002F0010040B11946364828
:10142000006800F00200002800D1F8E700E019464B
:1014300002F4803040B10B462F48006800F40030C1
:10144000002800D1F8E700E00B4602F0805068B1B8
:101450002948006840F0805127480160264800680C
:1014600000F00050002800D1F8E7FFE702F08060AC
:1014700078B12148006840F080611F480160114642
:101480001A461D48006800F00060002800D1F8E707
:1014900001E011461A4601F0807070B116480068EC
:1014A00040F080711448016011461348006800F054
:1014B000007000B9F9E70A46FFE70C48006800F041
:1014C0000C01900000F00C00814200D0F5E7DDF83F
:1014D00000E001B0704700BF8100010502841D00DB
:1014E000440601004019010000200240041002409F
:1014F0002C100240FFFF0F000010024081B0024993
:101500000248016001B0704740190100C40000208A
:1015100081B0FEE701B07047510600005D06000093
:1015200069060000110A0000590A0000410A000083
:101530004D0A00001D0A0000290A0000350A0000BB
:101540006504000071040000511000008D100000BF
:101550005D10000069100000751000009910000077
:1015600081100000910C0000AD0A0000A10A0000EB
:10157000C50A0000B90A000000B5DFF810B0DFF8B6
:1015800010A0FFF74BFE00BD704700BF0000002019
:10159000D4000020FFFFFFFFFFFFFFFFFFFFFFFF63
:00000001FF
